{"contracts/MsgDapp.sol":{"MsgDapp":{"abi":[{"inputs":[{"internalType":"address","name":"pubkey","type":"address"}],"name":"checkUserExists","outputs":[{"internalType":"bool","name":"","type":"bool"}],"stateMutability":"view","type":"function"},{"inputs":[{"internalType":"string","name":"name","type":"string"}],"name":"createAccount","outputs":[],"stateMutability":"nonpayable","type":"function"},{"inputs":[],"name":"getAllUsers","outputs":[{"components":[{"internalType":"string","name":"name","type":"string"},{"internalType":"address","name":"pubkey","type":"address"}],"internalType":"struct MsgDapp.user[]","name":"","type":"tuple[]"}],"stateMutability":"view","type":"function"},{"inputs":[],"name":"getMessages","outputs":[{"components":[{"internalType":"address","name":"sender","type":"address"},{"internalType":"uint256","name":"timestamp","type":"uint256"},{"internalType":"string","name":"msg","type":"string"}],"internalType":"struct MsgDapp.message[]","name":"","type":"tuple[]"}],"stateMutability":"view","type":"function"},{"inputs":[{"internalType":"string","name":"_msg","type":"string"}],"name":"sendMessage","outputs":[],"stateMutability":"nonpayable","type":"function"},{"inputs":[],"name":"test","outputs":[{"internalType":"string","name":"","type":"string"}],"stateMutability":"pure","type":"function"}],"evm":{"bytecode":{"linkReferences":{},"object":"608060405234801561001057600080fd5b506111ef806100206000396000f3fe608060405234801561001057600080fd5b50600436106100625760003560e01c8063133f50f514610067578063298daf5b14610097578063469c8110146100b35780635ff6cbf3146100cf578063e2842d79146100ed578063f8a8fd6d1461010b575b600080fd5b610081600480360381019061007c91906107ff565b610129565b60405161008e9190610847565b60405180910390f35b6100b160048036038101906100ac91906108c7565b610183565b005b6100cd60048036038101906100c891906108c7565b610367565b005b6100d76104c2565b6040516100e49190610ade565b60405180910390f35b6100f5610613565b6040516101029190610bff565b60405180910390f35b61011361075a565b6040516101209190610c6b565b60405180910390f35b600080600260008473ffffffffffffffffffffffffffffffffffffffff1673ffffffffffffffffffffffffffffffffffffffff168152602001908152602001600020600001805461017990610cbc565b9050119050919050565b6000151561019033610129565b1515146101d2576040517f08c379a00000000000000000000000000000000000000000000000000000000081526004016101c990610d39565b60405180910390fd5b60008282905011610218576040517f08c379a000000000000000000000000000000000000000000000000000000000815260040161020f90610da5565b60405180910390fd5b8181600260003373ffffffffffffffffffffffffffffffffffffffff1673ffffffffffffffffffffffffffffffffffffffff1681526020019081526020016000206000019182610269929190610fab565b506000604051806040016040528084848080601f016020809104026020016040519081016040528093929190818152602001838380828437600081840152601f19601f8201169050808301925050505050505081526020013373ffffffffffffffffffffffffffffffffffffffff1681525090806001815401808255809150506001900390600052602060002090600202016000909190919091506000820151816000019081610319919061107b565b5060208201518160010160006101000a81548173ffffffffffffffffffffffffffffffffffffffff021916908373ffffffffffffffffffffffffffffffffffffffff16021790555050505050565b61037033610129565b6103af576040517f08c379a00000000000000000000000000000000000000000000000000000000081526004016103a690611199565b60405180910390fd5b600060405180606001604052803373ffffffffffffffffffffffffffffffffffffffff16815260200142815260200184848080601f016020809104026020016040519081016040528093929190818152602001838380828437600081840152601f19601f820116905080830192505050505050508152509050600181908060018154018082558091505060019003906000526020600020906003020160009091909190915060008201518160000160006101000a81548173ffffffffffffffffffffffffffffffffffffffff021916908373ffffffffffffffffffffffffffffffffffffffff1602179055506020820151816001015560408201518160020190816104ba919061107b565b505050505050565b60606001805480602002602001604051908101604052809291908181526020016000905b8282101561060a57838290600052602060002090600302016040518060600160405290816000820160009054906101000a900473ffffffffffffffffffffffffffffffffffffffff1673ffffffffffffffffffffffffffffffffffffffff1673ffffffffffffffffffffffffffffffffffffffff1681526020016001820154815260200160028201805461057990610cbc565b80601f01602080910402602001604051908101604052809291908181526020018280546105a590610cbc565b80156105f25780601f106105c7576101008083540402835291602001916105f2565b820191906000526020600020905b8154815290600101906020018083116105d557829003601f168201915b505050505081525050815260200190600101906104e6565b50505050905090565b60606000805480602002602001604051908101604052809291908181526020016000905b82821015610751578382906000526020600020906002020160405180604001604052908160008201805461066a90610cbc565b80601f016020809104026020016040519081016040528092919081815260200182805461069690610cbc565b80156106e35780601f106106b8576101008083540402835291602001916106e3565b820191906000526020600020905b8154815290600101906020018083116106c657829003601f168201915b505050505081526020016001820160009054906101000a900473ffffffffffffffffffffffffffffffffffffffff1673ffffffffffffffffffffffffffffffffffffffff1673ffffffffffffffffffffffffffffffffffffffff168152505081526020019060010190610637565b50505050905090565b60606040518060400160405280600b81526020017f68656c6c6f20776f726c64000000000000000000000000000000000000000000815250905090565b600080fd5b600080fd5b600073ffffffffffffffffffffffffffffffffffffffff82169050919050565b60006107cc826107a1565b9050919050565b6107dc816107c1565b81146107e757600080fd5b50565b6000813590506107f9816107d3565b92915050565b60006020828403121561081557610814610797565b5b6000610823848285016107ea565b91505092915050565b60008115159050919050565b6108418161082c565b82525050565b600060208201905061085c6000830184610838565b92915050565b600080fd5b600080fd5b600080fd5b60008083601f84011261088757610886610862565b5b8235905067ffffffffffffffff8111156108a4576108a3610867565b5b6020830191508360018202830111156108c0576108bf61086c565b5b9250929050565b600080602083850312156108de576108dd610797565b5b600083013567ffffffffffffffff8111156108fc576108fb61079c565b5b61090885828601610871565b92509250509250929050565b600081519050919050565b600082825260208201905092915050565b6000819050602082019050919050565b610949816107c1565b82525050565b6000819050919050565b6109628161094f565b82525050565b600081519050919050565b600082825260208201905092915050565b60005b838110156109a2578082015181840152602081019050610987565b60008484015250505050565b6000601f19601f8301169050919050565b60006109ca82610968565b6109d48185610973565b93506109e4818560208601610984565b6109ed816109ae565b840191505092915050565b6000606083016000830151610a106000860182610940565b506020830151610a236020860182610959565b5060408301518482036040860152610a3b82826109bf565b9150508091505092915050565b6000610a5483836109f8565b905092915050565b6000602082019050919050565b6000610a7482610914565b610a7e818561091f565b935083602082028501610a9085610930565b8060005b85811015610acc5784840389528151610aad8582610a48565b9450610ab883610a5c565b925060208a01995050600181019050610a94565b50829750879550505050505092915050565b60006020820190508181036000830152610af88184610a69565b905092915050565b600081519050919050565b600082825260208201905092915050565b6000819050602082019050919050565b60006040830160008301518482036000860152610b4982826109bf565b9150506020830151610b5e6020860182610940565b508091505092915050565b6000610b758383610b2c565b905092915050565b6000602082019050919050565b6000610b9582610b00565b610b9f8185610b0b565b935083602082028501610bb185610b1c565b8060005b85811015610bed5784840389528151610bce8582610b69565b9450610bd983610b7d565b925060208a01995050600181019050610bb5565b50829750879550505050505092915050565b60006020820190508181036000830152610c198184610b8a565b905092915050565b600082825260208201905092915050565b6000610c3d82610968565b610c478185610c21565b9350610c57818560208601610984565b610c60816109ae565b840191505092915050565b60006020820190508181036000830152610c858184610c32565b905092915050565b7f4e487b7100000000000000000000000000000000000000000000000000000000600052602260045260246000fd5b60006002820490506001821680610cd457607f821691505b602082108103610ce757610ce6610c8d565b5b50919050565b7f5573657220616c72656164792065786973747300000000000000000000000000600082015250565b6000610d23601383610c21565b9150610d2e82610ced565b602082019050919050565b60006020820190508181036000830152610d5281610d16565b9050919050565b7f557365726e616d652063616e6e6f7420626520656d7074790000000000000000600082015250565b6000610d8f601883610c21565b9150610d9a82610d59565b602082019050919050565b60006020820190508181036000830152610dbe81610d82565b9050919050565b600082905092915050565b7f4e487b7100000000000000000000000000000000000000000000000000000000600052604160045260246000fd5b60008190508160005260206000209050919050565b60006020601f8301049050919050565b600082821b905092915050565b600060088302610e617fffffffffffffffffffffffffffffffffffffffffffffffffffffffffffffffff82610e24565b610e6b8683610e24565b95508019841693508086168417925050509392505050565b6000819050919050565b6000610ea8610ea3610e9e8461094f565b610e83565b61094f565b9050919050565b6000819050919050565b610ec283610e8d565b610ed6610ece82610eaf565b848454610e31565b825550505050565b600090565b610eeb610ede565b610ef6818484610eb9565b505050565b5b81811015610f1a57610f0f600082610ee3565b600181019050610efc565b5050565b601f821115610f5f57610f3081610dff565b610f3984610e14565b81016020851015610f48578190505b610f5c610f5485610e14565b830182610efb565b50505b505050565b600082821c905092915050565b6000610f8260001984600802610f64565b1980831691505092915050565b6000610f9b8383610f71565b9150826002028217905092915050565b610fb58383610dc5565b67ffffffffffffffff811115610fce57610fcd610dd0565b5b610fd88254610cbc565b610fe3828285610f1e565b6000601f8311600181146110125760008415611000578287013590505b61100a8582610f8f565b865550611072565b601f19841661102086610dff565b60005b8281101561104857848901358255600182019150602085019450602081019050611023565b868310156110655784890135611061601f891682610f71565b8355505b6001600288020188555050505b50505050505050565b61108482610968565b67ffffffffffffffff81111561109d5761109c610dd0565b5b6110a78254610cbc565b6110b2828285610f1e565b600060209050601f8311600181146110e557600084156110d3578287015190505b6110dd8582610f8f565b865550611145565b601f1984166110f386610dff565b60005b8281101561111b578489015182556001820191506020850194506020810190506110f6565b868310156111385784890151611134601f891682610f71565b8355505b6001600288020188555050505b505050505050565b7f43726561746520616e206163636f756e74206669727374000000000000000000600082015250565b6000611183601783610c21565b915061118e8261114d565b602082019050919050565b600060208201905081810360008301526111b281611176565b905091905056fea264697066735822122073fead99f13428ad090134133614f5b0795fddfc2c6df14f8e691bd51aa2623264736f6c63430008120033","opcodes":"PUSH1 0x80 PUSH1 0x40 MSTORE CALLVALUE DUP1 ISZERO PUSH2 0x10 JUMPI PUSH1 0x0 DUP1 REVERT JUMPDEST POP PUSH2 0x11EF DUP1 PUSH2 0x20 PUSH1 0x0 CODECOPY PUSH1 0x0 RETURN INVALID PUSH1 0x80 PUSH1 0x40 MSTORE CALLVALUE DUP1 ISZERO PUSH2 0x10 JUMPI PUSH1 0x0 DUP1 REVERT JUMPDEST POP PUSH1 0x4 CALLDATASIZE LT PUSH2 0x62 JUMPI PUSH1 0x0 CALLDATALOAD PUSH1 0xE0 SHR DUP1 PUSH4 0x133F50F5 EQ PUSH2 0x67 JUMPI DUP1 PUSH4 0x298DAF5B EQ PUSH2 0x97 JUMPI DUP1 PUSH4 0x469C8110 EQ PUSH2 0xB3 JUMPI DUP1 PUSH4 0x5FF6CBF3 EQ PUSH2 0xCF JUMPI DUP1 PUSH4 0xE2842D79 EQ PUSH2 0xED JUMPI DUP1 PUSH4 0xF8A8FD6D EQ PUSH2 0x10B JUMPI JUMPDEST PUSH1 0x0 DUP1 REVERT JUMPDEST PUSH2 0x81 PUSH1 0x4 DUP1 CALLDATASIZE SUB DUP2 ADD SWAP1 PUSH2 0x7C SWAP2 SWAP1 PUSH2 0x7FF JUMP JUMPDEST PUSH2 0x129 JUMP JUMPDEST PUSH1 0x40 MLOAD PUSH2 0x8E SWAP2 SWAP1 PUSH2 0x847 JUMP JUMPDEST PUSH1 0x40 MLOAD DUP1 SWAP2 SUB SWAP1 RETURN JUMPDEST PUSH2 0xB1 PUSH1 0x4 DUP1 CALLDATASIZE SUB DUP2 ADD SWAP1 PUSH2 0xAC SWAP2 SWAP1 PUSH2 0x8C7 JUMP JUMPDEST PUSH2 0x183 JUMP JUMPDEST STOP JUMPDEST PUSH2 0xCD PUSH1 0x4 DUP1 CALLDATASIZE SUB DUP2 ADD SWAP1 PUSH2 0xC8 SWAP2 SWAP1 PUSH2 0x8C7 JUMP JUMPDEST PUSH2 0x367 JUMP JUMPDEST STOP JUMPDEST PUSH2 0xD7 PUSH2 0x4C2 JUMP JUMPDEST PUSH1 0x40 MLOAD PUSH2 0xE4 SWAP2 SWAP1 PUSH2 0xADE JUMP JUMPDEST PUSH1 0x40 MLOAD DUP1 SWAP2 SUB SWAP1 RETURN JUMPDEST PUSH2 0xF5 PUSH2 0x613 JUMP JUMPDEST PUSH1 0x40 MLOAD PUSH2 0x102 SWAP2 SWAP1 PUSH2 0xBFF JUMP JUMPDEST PUSH1 0x40 MLOAD DUP1 SWAP2 SUB SWAP1 RETURN JUMPDEST PUSH2 0x113 PUSH2 0x75A JUMP JUMPDEST PUSH1 0x40 MLOAD PUSH2 0x120 SWAP2 SWAP1 PUSH2 0xC6B JUMP JUMPDEST PUSH1 0x40 MLOAD DUP1 SWAP2 SUB SWAP1 RETURN JUMPDEST PUSH1 0x0 DUP1 PUSH1 0x2 PUSH1 0x0 DUP5 PUSH20 0xFFFFFFFFFFFFFFFFFFFFFFFFFFFFFFFFFFFFFFFF AND PUSH20 0xFFFFFFFFFFFFFFFFFFFFFFFFFFFFFFFFFFFFFFFF AND DUP2 MSTORE PUSH1 0x20 ADD SWAP1 DUP2 MSTORE PUSH1 0x20 ADD PUSH1 0x0 KECCAK256 PUSH1 0x0 ADD DUP1 SLOAD PUSH2 0x179 SWAP1 PUSH2 0xCBC JUMP JUMPDEST SWAP1 POP GT SWAP1 POP SWAP2 SWAP1 POP JUMP JUMPDEST PUSH1 0x0 ISZERO ISZERO PUSH2 0x190 CALLER PUSH2 0x129 JUMP JUMPDEST ISZERO ISZERO EQ PUSH2 0x1D2 JUMPI PUSH1 0x40 MLOAD PUSH32 0x8C379A000000000000000000000000000000000000000000000000000000000 DUP2 MSTORE PUSH1 0x4 ADD PUSH2 0x1C9 SWAP1 PUSH2 0xD39 JUMP JUMPDEST PUSH1 0x40 MLOAD DUP1 SWAP2 SUB SWAP1 REVERT JUMPDEST PUSH1 0x0 DUP3 DUP3 SWAP1 POP GT PUSH2 0x218 JUMPI PUSH1 0x40 MLOAD PUSH32 0x8C379A000000000000000000000000000000000000000000000000000000000 DUP2 MSTORE PUSH1 0x4 ADD PUSH2 0x20F SWAP1 PUSH2 0xDA5 JUMP JUMPDEST PUSH1 0x40 MLOAD DUP1 SWAP2 SUB SWAP1 REVERT JUMPDEST DUP2 DUP2 PUSH1 0x2 PUSH1 0x0 CALLER PUSH20 0xFFFFFFFFFFFFFFFFFFFFFFFFFFFFFFFFFFFFFFFF AND PUSH20 0xFFFFFFFFFFFFFFFFFFFFFFFFFFFFFFFFFFFFFFFF AND DUP2 MSTORE PUSH1 0x20 ADD SWAP1 DUP2 MSTORE PUSH1 0x20 ADD PUSH1 0x0 KECCAK256 PUSH1 0x0 ADD SWAP2 DUP3 PUSH2 0x269 SWAP3 SWAP2 SWAP1 PUSH2 0xFAB JUMP JUMPDEST POP PUSH1 0x0 PUSH1 0x40 MLOAD DUP1 PUSH1 0x40 ADD PUSH1 0x40 MSTORE DUP1 DUP5 DUP5 DUP1 DUP1 PUSH1 0x1F ADD PUSH1 0x20 DUP1 SWAP2 DIV MUL PUSH1 0x20 ADD PUSH1 0x40 MLOAD SWAP1 DUP2 ADD PUSH1 0x40 MSTORE DUP1 SWAP4 SWAP3 SWAP2 SWAP1 DUP2 DUP2 MSTORE PUSH1 0x20 ADD DUP4 DUP4 DUP1 DUP3 DUP5 CALLDATACOPY PUSH1 0x0 DUP2 DUP5 ADD MSTORE PUSH1 0x1F NOT PUSH1 0x1F DUP3 ADD AND SWAP1 POP DUP1 DUP4 ADD SWAP3 POP POP POP POP POP POP POP DUP2 MSTORE PUSH1 0x20 ADD CALLER PUSH20 0xFFFFFFFFFFFFFFFFFFFFFFFFFFFFFFFFFFFFFFFF AND DUP2 MSTORE POP SWAP1 DUP1 PUSH1 0x1 DUP2 SLOAD ADD DUP1 DUP3 SSTORE DUP1 SWAP2 POP POP PUSH1 0x1 SWAP1 SUB SWAP1 PUSH1 0x0 MSTORE PUSH1 0x20 PUSH1 0x0 KECCAK256 SWAP1 PUSH1 0x2 MUL ADD PUSH1 0x0 SWAP1 SWAP2 SWAP1 SWAP2 SWAP1 SWAP2 POP PUSH1 0x0 DUP3 ADD MLOAD DUP2 PUSH1 0x0 ADD SWAP1 DUP2 PUSH2 0x319 SWAP2 SWAP1 PUSH2 0x107B JUMP JUMPDEST POP PUSH1 0x20 DUP3 ADD MLOAD DUP2 PUSH1 0x1 ADD PUSH1 0x0 PUSH2 0x100 EXP DUP2 SLOAD DUP2 PUSH20 0xFFFFFFFFFFFFFFFFFFFFFFFFFFFFFFFFFFFFFFFF MUL NOT AND SWAP1 DUP4 PUSH20 0xFFFFFFFFFFFFFFFFFFFFFFFFFFFFFFFFFFFFFFFF AND MUL OR SWAP1 SSTORE POP POP POP POP POP JUMP JUMPDEST PUSH2 0x370 CALLER PUSH2 0x129 JUMP JUMPDEST PUSH2 0x3AF JUMPI PUSH1 0x40 MLOAD PUSH32 0x8C379A000000000000000000000000000000000000000000000000000000000 DUP2 MSTORE PUSH1 0x4 ADD PUSH2 0x3A6 SWAP1 PUSH2 0x1199 JUMP JUMPDEST PUSH1 0x40 MLOAD DUP1 SWAP2 SUB SWAP1 REVERT JUMPDEST PUSH1 0x0 PUSH1 0x40 MLOAD DUP1 PUSH1 0x60 ADD PUSH1 0x40 MSTORE DUP1 CALLER PUSH20 0xFFFFFFFFFFFFFFFFFFFFFFFFFFFFFFFFFFFFFFFF AND DUP2 MSTORE PUSH1 0x20 ADD TIMESTAMP DUP2 MSTORE PUSH1 0x20 ADD DUP5 DUP5 DUP1 DUP1 PUSH1 0x1F ADD PUSH1 0x20 DUP1 SWAP2 DIV MUL PUSH1 0x20 ADD PUSH1 0x40 MLOAD SWAP1 DUP2 ADD PUSH1 0x40 MSTORE DUP1 SWAP4 SWAP3 SWAP2 SWAP1 DUP2 DUP2 MSTORE PUSH1 0x20 ADD DUP4 DUP4 DUP1 DUP3 DUP5 CALLDATACOPY PUSH1 0x0 DUP2 DUP5 ADD MSTORE PUSH1 0x1F NOT PUSH1 0x1F DUP3 ADD AND SWAP1 POP DUP1 DUP4 ADD SWAP3 POP POP POP POP POP POP POP DUP2 MSTORE POP SWAP1 POP PUSH1 0x1 DUP2 SWAP1 DUP1 PUSH1 0x1 DUP2 SLOAD ADD DUP1 DUP3 SSTORE DUP1 SWAP2 POP POP PUSH1 0x1 SWAP1 SUB SWAP1 PUSH1 0x0 MSTORE PUSH1 0x20 PUSH1 0x0 KECCAK256 SWAP1 PUSH1 0x3 MUL ADD PUSH1 0x0 SWAP1 SWAP2 SWAP1 SWAP2 SWAP1 SWAP2 POP PUSH1 0x0 DUP3 ADD MLOAD DUP2 PUSH1 0x0 ADD PUSH1 0x0 PUSH2 0x100 EXP DUP2 SLOAD DUP2 PUSH20 0xFFFFFFFFFFFFFFFFFFFFFFFFFFFFFFFFFFFFFFFF MUL NOT AND SWAP1 DUP4 PUSH20 0xFFFFFFFFFFFFFFFFFFFFFFFFFFFFFFFFFFFFFFFF AND MUL OR SWAP1 SSTORE POP PUSH1 0x20 DUP3 ADD MLOAD DUP2 PUSH1 0x1 ADD SSTORE PUSH1 0x40 DUP3 ADD MLOAD DUP2 PUSH1 0x2 ADD SWAP1 DUP2 PUSH2 0x4BA SWAP2 SWAP1 PUSH2 0x107B JUMP JUMPDEST POP POP POP POP POP POP JUMP JUMPDEST PUSH1 0x60 PUSH1 0x1 DUP1 SLOAD DUP1 PUSH1 0x20 MUL PUSH1 0x20 ADD PUSH1 0x40 MLOAD SWAP1 DUP2 ADD PUSH1 0x40 MSTORE DUP1 SWAP3 SWAP2 SWAP1 DUP2 DUP2 MSTORE PUSH1 0x20 ADD PUSH1 0x0 SWAP1 JUMPDEST DUP3 DUP3 LT ISZERO PUSH2 0x60A JUMPI DUP4 DUP3 SWAP1 PUSH1 0x0 MSTORE PUSH1 0x20 PUSH1 0x0 KECCAK256 SWAP1 PUSH1 0x3 MUL ADD PUSH1 0x40 MLOAD DUP1 PUSH1 0x60 ADD PUSH1 0x40 MSTORE SWAP1 DUP2 PUSH1 0x0 DUP3 ADD PUSH1 0x0 SWAP1 SLOAD SWAP1 PUSH2 0x100 EXP SWAP1 DIV PUSH20 0xFFFFFFFFFFFFFFFFFFFFFFFFFFFFFFFFFFFFFFFF AND PUSH20 0xFFFFFFFFFFFFFFFFFFFFFFFFFFFFFFFFFFFFFFFF AND PUSH20 0xFFFFFFFFFFFFFFFFFFFFFFFFFFFFFFFFFFFFFFFF AND DUP2 MSTORE PUSH1 0x20 ADD PUSH1 0x1 DUP3 ADD SLOAD DUP2 MSTORE PUSH1 0x20 ADD PUSH1 0x2 DUP3 ADD DUP1 SLOAD PUSH2 0x579 SWAP1 PUSH2 0xCBC JUMP JUMPDEST DUP1 PUSH1 0x1F ADD PUSH1 0x20 DUP1 SWAP2 DIV MUL PUSH1 0x20 ADD PUSH1 0x40 MLOAD SWAP1 DUP2 ADD PUSH1 0x40 MSTORE DUP1 SWAP3 SWAP2 SWAP1 DUP2 DUP2 MSTORE PUSH1 0x20 ADD DUP3 DUP1 SLOAD PUSH2 0x5A5 SWAP1 PUSH2 0xCBC JUMP JUMPDEST DUP1 ISZERO PUSH2 0x5F2 JUMPI DUP1 PUSH1 0x1F LT PUSH2 0x5C7 JUMPI PUSH2 0x100 DUP1 DUP4 SLOAD DIV MUL DUP4 MSTORE SWAP2 PUSH1 0x20 ADD SWAP2 PUSH2 0x5F2 JUMP JUMPDEST DUP3 ADD SWAP2 SWAP1 PUSH1 0x0 MSTORE PUSH1 0x20 PUSH1 0x0 KECCAK256 SWAP1 JUMPDEST DUP2 SLOAD DUP2 MSTORE SWAP1 PUSH1 0x1 ADD SWAP1 PUSH1 0x20 ADD DUP1 DUP4 GT PUSH2 0x5D5 JUMPI DUP3 SWAP1 SUB PUSH1 0x1F AND DUP3 ADD SWAP2 JUMPDEST POP POP POP POP POP DUP2 MSTORE POP POP DUP2 MSTORE PUSH1 0x20 ADD SWAP1 PUSH1 0x1 ADD SWAP1 PUSH2 0x4E6 JUMP JUMPDEST POP POP POP POP SWAP1 POP SWAP1 JUMP JUMPDEST PUSH1 0x60 PUSH1 0x0 DUP1 SLOAD DUP1 PUSH1 0x20 MUL PUSH1 0x20 ADD PUSH1 0x40 MLOAD SWAP1 DUP2 ADD PUSH1 0x40 MSTORE DUP1 SWAP3 SWAP2 SWAP1 DUP2 DUP2 MSTORE PUSH1 0x20 ADD PUSH1 0x0 SWAP1 JUMPDEST DUP3 DUP3 LT ISZERO PUSH2 0x751 JUMPI DUP4 DUP3 SWAP1 PUSH1 0x0 MSTORE PUSH1 0x20 PUSH1 0x0 KECCAK256 SWAP1 PUSH1 0x2 MUL ADD PUSH1 0x40 MLOAD DUP1 PUSH1 0x40 ADD PUSH1 0x40 MSTORE SWAP1 DUP2 PUSH1 0x0 DUP3 ADD DUP1 SLOAD PUSH2 0x66A SWAP1 PUSH2 0xCBC JUMP JUMPDEST DUP1 PUSH1 0x1F ADD PUSH1 0x20 DUP1 SWAP2 DIV MUL PUSH1 0x20 ADD PUSH1 0x40 MLOAD SWAP1 DUP2 ADD PUSH1 0x40 MSTORE DUP1 SWAP3 SWAP2 SWAP1 DUP2 DUP2 MSTORE PUSH1 0x20 ADD DUP3 DUP1 SLOAD PUSH2 0x696 SWAP1 PUSH2 0xCBC JUMP JUMPDEST DUP1 ISZERO PUSH2 0x6E3 JUMPI DUP1 PUSH1 0x1F LT PUSH2 0x6B8 JUMPI PUSH2 0x100 DUP1 DUP4 SLOAD DIV MUL DUP4 MSTORE SWAP2 PUSH1 0x20 ADD SWAP2 PUSH2 0x6E3 JUMP JUMPDEST DUP3 ADD SWAP2 SWAP1 PUSH1 0x0 MSTORE PUSH1 0x20 PUSH1 0x0 KECCAK256 SWAP1 JUMPDEST DUP2 SLOAD DUP2 MSTORE SWAP1 PUSH1 0x1 ADD SWAP1 PUSH1 0x20 ADD DUP1 DUP4 GT PUSH2 0x6C6 JUMPI DUP3 SWAP1 SUB PUSH1 0x1F AND DUP3 ADD SWAP2 JUMPDEST POP POP POP POP POP DUP2 MSTORE PUSH1 0x20 ADD PUSH1 0x1 DUP3 ADD PUSH1 0x0 SWAP1 SLOAD SWAP1 PUSH2 0x100 EXP SWAP1 DIV PUSH20 0xFFFFFFFFFFFFFFFFFFFFFFFFFFFFFFFFFFFFFFFF AND PUSH20 0xFFFFFFFFFFFFFFFFFFFFFFFFFFFFFFFFFFFFFFFF AND PUSH20 0xFFFFFFFFFFFFFFFFFFFFFFFFFFFFFFFFFFFFFFFF AND DUP2 MSTORE POP POP DUP2 MSTORE PUSH1 0x20 ADD SWAP1 PUSH1 0x1 ADD SWAP1 PUSH2 0x637 JUMP JUMPDEST POP POP POP POP SWAP1 POP SWAP1 JUMP JUMPDEST PUSH1 0x60 PUSH1 0x40 MLOAD DUP1 PUSH1 0x40 ADD PUSH1 0x40 MSTORE DUP1 PUSH1 0xB DUP2 MSTORE PUSH1 0x20 ADD PUSH32 0x68656C6C6F20776F726C64000000000000000000000000000000000000000000 DUP2 MSTORE POP SWAP1 POP SWAP1 JUMP JUMPDEST PUSH1 0x0 DUP1 REVERT JUMPDEST PUSH1 0x0 DUP1 REVERT JUMPDEST PUSH1 0x0 PUSH20 0xFFFFFFFFFFFFFFFFFFFFFFFFFFFFFFFFFFFFFFFF DUP3 AND SWAP1 POP SWAP2 SWAP1 POP JUMP JUMPDEST PUSH1 0x0 PUSH2 0x7CC DUP3 PUSH2 0x7A1 JUMP JUMPDEST SWAP1 POP SWAP2 SWAP1 POP JUMP JUMPDEST PUSH2 0x7DC DUP2 PUSH2 0x7C1 JUMP JUMPDEST DUP2 EQ PUSH2 0x7E7 JUMPI PUSH1 0x0 DUP1 REVERT JUMPDEST POP JUMP JUMPDEST PUSH1 0x0 DUP2 CALLDATALOAD SWAP1 POP PUSH2 0x7F9 DUP2 PUSH2 0x7D3 JUMP JUMPDEST SWAP3 SWAP2 POP POP JUMP JUMPDEST PUSH1 0x0 PUSH1 0x20 DUP3 DUP5 SUB SLT ISZERO PUSH2 0x815 JUMPI PUSH2 0x814 PUSH2 0x797 JUMP JUMPDEST JUMPDEST PUSH1 0x0 PUSH2 0x823 DUP5 DUP3 DUP6 ADD PUSH2 0x7EA JUMP JUMPDEST SWAP2 POP POP SWAP3 SWAP2 POP POP JUMP JUMPDEST PUSH1 0x0 DUP2 ISZERO ISZERO SWAP1 POP SWAP2 SWAP1 POP JUMP JUMPDEST PUSH2 0x841 DUP2 PUSH2 0x82C JUMP JUMPDEST DUP3 MSTORE POP POP JUMP JUMPDEST PUSH1 0x0 PUSH1 0x20 DUP3 ADD SWAP1 POP PUSH2 0x85C PUSH1 0x0 DUP4 ADD DUP5 PUSH2 0x838 JUMP JUMPDEST SWAP3 SWAP2 POP POP JUMP JUMPDEST PUSH1 0x0 DUP1 REVERT JUMPDEST PUSH1 0x0 DUP1 REVERT JUMPDEST PUSH1 0x0 DUP1 REVERT JUMPDEST PUSH1 0x0 DUP1 DUP4 PUSH1 0x1F DUP5 ADD SLT PUSH2 0x887 JUMPI PUSH2 0x886 PUSH2 0x862 JUMP JUMPDEST JUMPDEST DUP3 CALLDATALOAD SWAP1 POP PUSH8 0xFFFFFFFFFFFFFFFF DUP2 GT ISZERO PUSH2 0x8A4 JUMPI PUSH2 0x8A3 PUSH2 0x867 JUMP JUMPDEST JUMPDEST PUSH1 0x20 DUP4 ADD SWAP2 POP DUP4 PUSH1 0x1 DUP3 MUL DUP4 ADD GT ISZERO PUSH2 0x8C0 JUMPI PUSH2 0x8BF PUSH2 0x86C JUMP JUMPDEST JUMPDEST SWAP3 POP SWAP3 SWAP1 POP JUMP JUMPDEST PUSH1 0x0 DUP1 PUSH1 0x20 DUP4 DUP6 SUB SLT ISZERO PUSH2 0x8DE JUMPI PUSH2 0x8DD PUSH2 0x797 JUMP JUMPDEST JUMPDEST PUSH1 0x0 DUP4 ADD CALLDATALOAD PUSH8 0xFFFFFFFFFFFFFFFF DUP2 GT ISZERO PUSH2 0x8FC JUMPI PUSH2 0x8FB PUSH2 0x79C JUMP JUMPDEST JUMPDEST PUSH2 0x908 DUP6 DUP3 DUP7 ADD PUSH2 0x871 JUMP JUMPDEST SWAP3 POP SWAP3 POP POP SWAP3 POP SWAP3 SWAP1 POP JUMP JUMPDEST PUSH1 0x0 DUP2 MLOAD SWAP1 POP SWAP2 SWAP1 POP JUMP JUMPDEST PUSH1 0x0 DUP3 DUP3 MSTORE PUSH1 0x20 DUP3 ADD SWAP1 POP SWAP3 SWAP2 POP POP JUMP JUMPDEST PUSH1 0x0 DUP2 SWAP1 POP PUSH1 0x20 DUP3 ADD SWAP1 POP SWAP2 SWAP1 POP JUMP JUMPDEST PUSH2 0x949 DUP2 PUSH2 0x7C1 JUMP JUMPDEST DUP3 MSTORE POP POP JUMP JUMPDEST PUSH1 0x0 DUP2 SWAP1 POP SWAP2 SWAP1 POP JUMP JUMPDEST PUSH2 0x962 DUP2 PUSH2 0x94F JUMP JUMPDEST DUP3 MSTORE POP POP JUMP JUMPDEST PUSH1 0x0 DUP2 MLOAD SWAP1 POP SWAP2 SWAP1 POP JUMP JUMPDEST PUSH1 0x0 DUP3 DUP3 MSTORE PUSH1 0x20 DUP3 ADD SWAP1 POP SWAP3 SWAP2 POP POP JUMP JUMPDEST PUSH1 0x0 JUMPDEST DUP4 DUP2 LT ISZERO PUSH2 0x9A2 JUMPI DUP1 DUP3 ADD MLOAD DUP2 DUP5 ADD MSTORE PUSH1 0x20 DUP2 ADD SWAP1 POP PUSH2 0x987 JUMP JUMPDEST PUSH1 0x0 DUP5 DUP5 ADD MSTORE POP POP POP POP JUMP JUMPDEST PUSH1 0x0 PUSH1 0x1F NOT PUSH1 0x1F DUP4 ADD AND SWAP1 POP SWAP2 SWAP1 POP JUMP JUMPDEST PUSH1 0x0 PUSH2 0x9CA DUP3 PUSH2 0x968 JUMP JUMPDEST PUSH2 0x9D4 DUP2 DUP6 PUSH2 0x973 JUMP JUMPDEST SWAP4 POP PUSH2 0x9E4 DUP2 DUP6 PUSH1 0x20 DUP7 ADD PUSH2 0x984 JUMP JUMPDEST PUSH2 0x9ED DUP2 PUSH2 0x9AE JUMP JUMPDEST DUP5 ADD SWAP2 POP POP SWAP3 SWAP2 POP POP JUMP JUMPDEST PUSH1 0x0 PUSH1 0x60 DUP4 ADD PUSH1 0x0 DUP4 ADD MLOAD PUSH2 0xA10 PUSH1 0x0 DUP7 ADD DUP3 PUSH2 0x940 JUMP JUMPDEST POP PUSH1 0x20 DUP4 ADD MLOAD PUSH2 0xA23 PUSH1 0x20 DUP7 ADD DUP3 PUSH2 0x959 JUMP JUMPDEST POP PUSH1 0x40 DUP4 ADD MLOAD DUP5 DUP3 SUB PUSH1 0x40 DUP7 ADD MSTORE PUSH2 0xA3B DUP3 DUP3 PUSH2 0x9BF JUMP JUMPDEST SWAP2 POP POP DUP1 SWAP2 POP POP SWAP3 SWAP2 POP POP JUMP JUMPDEST PUSH1 0x0 PUSH2 0xA54 DUP4 DUP4 PUSH2 0x9F8 JUMP JUMPDEST SWAP1 POP SWAP3 SWAP2 POP POP JUMP JUMPDEST PUSH1 0x0 PUSH1 0x20 DUP3 ADD SWAP1 POP SWAP2 SWAP1 POP JUMP JUMPDEST PUSH1 0x0 PUSH2 0xA74 DUP3 PUSH2 0x914 JUMP JUMPDEST PUSH2 0xA7E DUP2 DUP6 PUSH2 0x91F JUMP JUMPDEST SWAP4 POP DUP4 PUSH1 0x20 DUP3 MUL DUP6 ADD PUSH2 0xA90 DUP6 PUSH2 0x930 JUMP JUMPDEST DUP1 PUSH1 0x0 JUMPDEST DUP6 DUP2 LT ISZERO PUSH2 0xACC JUMPI DUP5 DUP5 SUB DUP10 MSTORE DUP2 MLOAD PUSH2 0xAAD DUP6 DUP3 PUSH2 0xA48 JUMP JUMPDEST SWAP5 POP PUSH2 0xAB8 DUP4 PUSH2 0xA5C JUMP JUMPDEST SWAP3 POP PUSH1 0x20 DUP11 ADD SWAP10 POP POP PUSH1 0x1 DUP2 ADD SWAP1 POP PUSH2 0xA94 JUMP JUMPDEST POP DUP3 SWAP8 POP DUP8 SWAP6 POP POP POP POP POP POP SWAP3 SWAP2 POP POP JUMP JUMPDEST PUSH1 0x0 PUSH1 0x20 DUP3 ADD SWAP1 POP DUP2 DUP2 SUB PUSH1 0x0 DUP4 ADD MSTORE PUSH2 0xAF8 DUP2 DUP5 PUSH2 0xA69 JUMP JUMPDEST SWAP1 POP SWAP3 SWAP2 POP POP JUMP JUMPDEST PUSH1 0x0 DUP2 MLOAD SWAP1 POP SWAP2 SWAP1 POP JUMP JUMPDEST PUSH1 0x0 DUP3 DUP3 MSTORE PUSH1 0x20 DUP3 ADD SWAP1 POP SWAP3 SWAP2 POP POP JUMP JUMPDEST PUSH1 0x0 DUP2 SWAP1 POP PUSH1 0x20 DUP3 ADD SWAP1 POP SWAP2 SWAP1 POP JUMP JUMPDEST PUSH1 0x0 PUSH1 0x40 DUP4 ADD PUSH1 0x0 DUP4 ADD MLOAD DUP5 DUP3 SUB PUSH1 0x0 DUP7 ADD MSTORE PUSH2 0xB49 DUP3 DUP3 PUSH2 0x9BF JUMP JUMPDEST SWAP2 POP POP PUSH1 0x20 DUP4 ADD MLOAD PUSH2 0xB5E PUSH1 0x20 DUP7 ADD DUP3 PUSH2 0x940 JUMP JUMPDEST POP DUP1 SWAP2 POP POP SWAP3 SWAP2 POP POP JUMP JUMPDEST PUSH1 0x0 PUSH2 0xB75 DUP4 DUP4 PUSH2 0xB2C JUMP JUMPDEST SWAP1 POP SWAP3 SWAP2 POP POP JUMP JUMPDEST PUSH1 0x0 PUSH1 0x20 DUP3 ADD SWAP1 POP SWAP2 SWAP1 POP JUMP JUMPDEST PUSH1 0x0 PUSH2 0xB95 DUP3 PUSH2 0xB00 JUMP JUMPDEST PUSH2 0xB9F DUP2 DUP6 PUSH2 0xB0B JUMP JUMPDEST SWAP4 POP DUP4 PUSH1 0x20 DUP3 MUL DUP6 ADD PUSH2 0xBB1 DUP6 PUSH2 0xB1C JUMP JUMPDEST DUP1 PUSH1 0x0 JUMPDEST DUP6 DUP2 LT ISZERO PUSH2 0xBED JUMPI DUP5 DUP5 SUB DUP10 MSTORE DUP2 MLOAD PUSH2 0xBCE DUP6 DUP3 PUSH2 0xB69 JUMP JUMPDEST SWAP5 POP PUSH2 0xBD9 DUP4 PUSH2 0xB7D JUMP JUMPDEST SWAP3 POP PUSH1 0x20 DUP11 ADD SWAP10 POP POP PUSH1 0x1 DUP2 ADD SWAP1 POP PUSH2 0xBB5 JUMP JUMPDEST POP DUP3 SWAP8 POP DUP8 SWAP6 POP POP POP POP POP POP SWAP3 SWAP2 POP POP JUMP JUMPDEST PUSH1 0x0 PUSH1 0x20 DUP3 ADD SWAP1 POP DUP2 DUP2 SUB PUSH1 0x0 DUP4 ADD MSTORE PUSH2 0xC19 DUP2 DUP5 PUSH2 0xB8A JUMP JUMPDEST SWAP1 POP SWAP3 SWAP2 POP POP JUMP JUMPDEST PUSH1 0x0 DUP3 DUP3 MSTORE PUSH1 0x20 DUP3 ADD SWAP1 POP SWAP3 SWAP2 POP POP JUMP JUMPDEST PUSH1 0x0 PUSH2 0xC3D DUP3 PUSH2 0x968 JUMP JUMPDEST PUSH2 0xC47 DUP2 DUP6 PUSH2 0xC21 JUMP JUMPDEST SWAP4 POP PUSH2 0xC57 DUP2 DUP6 PUSH1 0x20 DUP7 ADD PUSH2 0x984 JUMP JUMPDEST PUSH2 0xC60 DUP2 PUSH2 0x9AE JUMP JUMPDEST DUP5 ADD SWAP2 POP POP SWAP3 SWAP2 POP POP JUMP JUMPDEST PUSH1 0x0 PUSH1 0x20 DUP3 ADD SWAP1 POP DUP2 DUP2 SUB PUSH1 0x0 DUP4 ADD MSTORE PUSH2 0xC85 DUP2 DUP5 PUSH2 0xC32 JUMP JUMPDEST SWAP1 POP SWAP3 SWAP2 POP POP JUMP JUMPDEST PUSH32 0x4E487B7100000000000000000000000000000000000000000000000000000000 PUSH1 0x0 MSTORE PUSH1 0x22 PUSH1 0x4 MSTORE PUSH1 0x24 PUSH1 0x0 REVERT JUMPDEST PUSH1 0x0 PUSH1 0x2 DUP3 DIV SWAP1 POP PUSH1 0x1 DUP3 AND DUP1 PUSH2 0xCD4 JUMPI PUSH1 0x7F DUP3 AND SWAP2 POP JUMPDEST PUSH1 0x20 DUP3 LT DUP2 SUB PUSH2 0xCE7 JUMPI PUSH2 0xCE6 PUSH2 0xC8D JUMP JUMPDEST JUMPDEST POP SWAP2 SWAP1 POP JUMP JUMPDEST PUSH32 0x5573657220616C72656164792065786973747300000000000000000000000000 PUSH1 0x0 DUP3 ADD MSTORE POP JUMP JUMPDEST PUSH1 0x0 PUSH2 0xD23 PUSH1 0x13 DUP4 PUSH2 0xC21 JUMP JUMPDEST SWAP2 POP PUSH2 0xD2E DUP3 PUSH2 0xCED JUMP JUMPDEST PUSH1 0x20 DUP3 ADD SWAP1 POP SWAP2 SWAP1 POP JUMP JUMPDEST PUSH1 0x0 PUSH1 0x20 DUP3 ADD SWAP1 POP DUP2 DUP2 SUB PUSH1 0x0 DUP4 ADD MSTORE PUSH2 0xD52 DUP2 PUSH2 0xD16 JUMP JUMPDEST SWAP1 POP SWAP2 SWAP1 POP JUMP JUMPDEST PUSH32 0x557365726E616D652063616E6E6F7420626520656D7074790000000000000000 PUSH1 0x0 DUP3 ADD MSTORE POP JUMP JUMPDEST PUSH1 0x0 PUSH2 0xD8F PUSH1 0x18 DUP4 PUSH2 0xC21 JUMP JUMPDEST SWAP2 POP PUSH2 0xD9A DUP3 PUSH2 0xD59 JUMP JUMPDEST PUSH1 0x20 DUP3 ADD SWAP1 POP SWAP2 SWAP1 POP JUMP JUMPDEST PUSH1 0x0 PUSH1 0x20 DUP3 ADD SWAP1 POP DUP2 DUP2 SUB PUSH1 0x0 DUP4 ADD MSTORE PUSH2 0xDBE DUP2 PUSH2 0xD82 JUMP JUMPDEST SWAP1 POP SWAP2 SWAP1 POP JUMP JUMPDEST PUSH1 0x0 DUP3 SWAP1 POP SWAP3 SWAP2 POP POP JUMP JUMPDEST PUSH32 0x4E487B7100000000000000000000000000000000000000000000000000000000 PUSH1 0x0 MSTORE PUSH1 0x41 PUSH1 0x4 MSTORE PUSH1 0x24 PUSH1 0x0 REVERT JUMPDEST PUSH1 0x0 DUP2 SWAP1 POP DUP2 PUSH1 0x0 MSTORE PUSH1 0x20 PUSH1 0x0 KECCAK256 SWAP1 POP SWAP2 SWAP1 POP JUMP JUMPDEST PUSH1 0x0 PUSH1 0x20 PUSH1 0x1F DUP4 ADD DIV SWAP1 POP SWAP2 SWAP1 POP JUMP JUMPDEST PUSH1 0x0 DUP3 DUP3 SHL SWAP1 POP SWAP3 SWAP2 POP POP JUMP JUMPDEST PUSH1 0x0 PUSH1 0x8 DUP4 MUL PUSH2 0xE61 PUSH32 0xFFFFFFFFFFFFFFFFFFFFFFFFFFFFFFFFFFFFFFFFFFFFFFFFFFFFFFFFFFFFFFFF DUP3 PUSH2 0xE24 JUMP JUMPDEST PUSH2 0xE6B DUP7 DUP4 PUSH2 0xE24 JUMP JUMPDEST SWAP6 POP DUP1 NOT DUP5 AND SWAP4 POP DUP1 DUP7 AND DUP5 OR SWAP3 POP POP POP SWAP4 SWAP3 POP POP POP JUMP JUMPDEST PUSH1 0x0 DUP2 SWAP1 POP SWAP2 SWAP1 POP JUMP JUMPDEST PUSH1 0x0 PUSH2 0xEA8 PUSH2 0xEA3 PUSH2 0xE9E DUP5 PUSH2 0x94F JUMP JUMPDEST PUSH2 0xE83 JUMP JUMPDEST PUSH2 0x94F JUMP JUMPDEST SWAP1 POP SWAP2 SWAP1 POP JUMP JUMPDEST PUSH1 0x0 DUP2 SWAP1 POP SWAP2 SWAP1 POP JUMP JUMPDEST PUSH2 0xEC2 DUP4 PUSH2 0xE8D JUMP JUMPDEST PUSH2 0xED6 PUSH2 0xECE DUP3 PUSH2 0xEAF JUMP JUMPDEST DUP5 DUP5 SLOAD PUSH2 0xE31 JUMP JUMPDEST DUP3 SSTORE POP POP POP POP JUMP JUMPDEST PUSH1 0x0 SWAP1 JUMP JUMPDEST PUSH2 0xEEB PUSH2 0xEDE JUMP JUMPDEST PUSH2 0xEF6 DUP2 DUP5 DUP5 PUSH2 0xEB9 JUMP JUMPDEST POP POP POP JUMP JUMPDEST JUMPDEST DUP2 DUP2 LT ISZERO PUSH2 0xF1A JUMPI PUSH2 0xF0F PUSH1 0x0 DUP3 PUSH2 0xEE3 JUMP JUMPDEST PUSH1 0x1 DUP2 ADD SWAP1 POP PUSH2 0xEFC JUMP JUMPDEST POP POP JUMP JUMPDEST PUSH1 0x1F DUP3 GT ISZERO PUSH2 0xF5F JUMPI PUSH2 0xF30 DUP2 PUSH2 0xDFF JUMP JUMPDEST PUSH2 0xF39 DUP5 PUSH2 0xE14 JUMP JUMPDEST DUP2 ADD PUSH1 0x20 DUP6 LT ISZERO PUSH2 0xF48 JUMPI DUP2 SWAP1 POP JUMPDEST PUSH2 0xF5C PUSH2 0xF54 DUP6 PUSH2 0xE14 JUMP JUMPDEST DUP4 ADD DUP3 PUSH2 0xEFB JUMP JUMPDEST POP POP JUMPDEST POP POP POP JUMP JUMPDEST PUSH1 0x0 DUP3 DUP3 SHR SWAP1 POP SWAP3 SWAP2 POP POP JUMP JUMPDEST PUSH1 0x0 PUSH2 0xF82 PUSH1 0x0 NOT DUP5 PUSH1 0x8 MUL PUSH2 0xF64 JUMP JUMPDEST NOT DUP1 DUP4 AND SWAP2 POP POP SWAP3 SWAP2 POP POP JUMP JUMPDEST PUSH1 0x0 PUSH2 0xF9B DUP4 DUP4 PUSH2 0xF71 JUMP JUMPDEST SWAP2 POP DUP3 PUSH1 0x2 MUL DUP3 OR SWAP1 POP SWAP3 SWAP2 POP POP JUMP JUMPDEST PUSH2 0xFB5 DUP4 DUP4 PUSH2 0xDC5 JUMP JUMPDEST PUSH8 0xFFFFFFFFFFFFFFFF DUP2 GT ISZERO PUSH2 0xFCE JUMPI PUSH2 0xFCD PUSH2 0xDD0 JUMP JUMPDEST JUMPDEST PUSH2 0xFD8 DUP3 SLOAD PUSH2 0xCBC JUMP JUMPDEST PUSH2 0xFE3 DUP3 DUP3 DUP6 PUSH2 0xF1E JUMP JUMPDEST PUSH1 0x0 PUSH1 0x1F DUP4 GT PUSH1 0x1 DUP2 EQ PUSH2 0x1012 JUMPI PUSH1 0x0 DUP5 ISZERO PUSH2 0x1000 JUMPI DUP3 DUP8 ADD CALLDATALOAD SWAP1 POP JUMPDEST PUSH2 0x100A DUP6 DUP3 PUSH2 0xF8F JUMP JUMPDEST DUP7 SSTORE POP PUSH2 0x1072 JUMP JUMPDEST PUSH1 0x1F NOT DUP5 AND PUSH2 0x1020 DUP7 PUSH2 0xDFF JUMP JUMPDEST PUSH1 0x0 JUMPDEST DUP3 DUP2 LT ISZERO PUSH2 0x1048 JUMPI DUP5 DUP10 ADD CALLDATALOAD DUP3 SSTORE PUSH1 0x1 DUP3 ADD SWAP2 POP PUSH1 0x20 DUP6 ADD SWAP5 POP PUSH1 0x20 DUP2 ADD SWAP1 POP PUSH2 0x1023 JUMP JUMPDEST DUP7 DUP4 LT ISZERO PUSH2 0x1065 JUMPI DUP5 DUP10 ADD CALLDATALOAD PUSH2 0x1061 PUSH1 0x1F DUP10 AND DUP3 PUSH2 0xF71 JUMP JUMPDEST DUP4 SSTORE POP JUMPDEST PUSH1 0x1 PUSH1 0x2 DUP9 MUL ADD DUP9 SSTORE POP POP POP JUMPDEST POP POP POP POP POP POP POP JUMP JUMPDEST PUSH2 0x1084 DUP3 PUSH2 0x968 JUMP JUMPDEST PUSH8 0xFFFFFFFFFFFFFFFF DUP2 GT ISZERO PUSH2 0x109D JUMPI PUSH2 0x109C PUSH2 0xDD0 JUMP JUMPDEST JUMPDEST PUSH2 0x10A7 DUP3 SLOAD PUSH2 0xCBC JUMP JUMPDEST PUSH2 0x10B2 DUP3 DUP3 DUP6 PUSH2 0xF1E JUMP JUMPDEST PUSH1 0x0 PUSH1 0x20 SWAP1 POP PUSH1 0x1F DUP4 GT PUSH1 0x1 DUP2 EQ PUSH2 0x10E5 JUMPI PUSH1 0x0 DUP5 ISZERO PUSH2 0x10D3 JUMPI DUP3 DUP8 ADD MLOAD SWAP1 POP JUMPDEST PUSH2 0x10DD DUP6 DUP3 PUSH2 0xF8F JUMP JUMPDEST DUP7 SSTORE POP PUSH2 0x1145 JUMP JUMPDEST PUSH1 0x1F NOT DUP5 AND PUSH2 0x10F3 DUP7 PUSH2 0xDFF JUMP JUMPDEST PUSH1 0x0 JUMPDEST DUP3 DUP2 LT ISZERO PUSH2 0x111B JUMPI DUP5 DUP10 ADD MLOAD DUP3 SSTORE PUSH1 0x1 DUP3 ADD SWAP2 POP PUSH1 0x20 DUP6 ADD SWAP5 POP PUSH1 0x20 DUP2 ADD SWAP1 POP PUSH2 0x10F6 JUMP JUMPDEST DUP7 DUP4 LT ISZERO PUSH2 0x1138 JUMPI DUP5 DUP10 ADD MLOAD PUSH2 0x1134 PUSH1 0x1F DUP10 AND DUP3 PUSH2 0xF71 JUMP JUMPDEST DUP4 SSTORE POP JUMPDEST PUSH1 0x1 PUSH1 0x2 DUP9 MUL ADD DUP9 SSTORE POP POP POP JUMPDEST POP POP POP POP POP POP JUMP JUMPDEST PUSH32 0x43726561746520616E206163636F756E74206669727374000000000000000000 PUSH1 0x0 DUP3 ADD MSTORE POP JUMP JUMPDEST PUSH1 0x0 PUSH2 0x1183 PUSH1 0x17 DUP4 PUSH2 0xC21 JUMP JUMPDEST SWAP2 POP PUSH2 0x118E DUP3 PUSH2 0x114D JUMP JUMPDEST PUSH1 0x20 DUP3 ADD SWAP1 POP SWAP2 SWAP1 POP JUMP JUMPDEST PUSH1 0x0 PUSH1 0x20 DUP3 ADD SWAP1 POP DUP2 DUP2 SUB PUSH1 0x0 DUP4 ADD MSTORE PUSH2 0x11B2 DUP2 PUSH2 0x1176 JUMP JUMPDEST SWAP1 POP SWAP2 SWAP1 POP JUMP INVALID LOG2 PUSH5 0x6970667358 0x22 SLT KECCAK256 PUSH20 0xFEAD99F13428AD090134133614F5B0795FDDFC2C PUSH14 0xF14F8E691BD51AA2623264736F6C PUSH4 0x43000812 STOP CALLER "},"methodIdentifiers":{"checkUserExists(address)":"133f50f5","createAccount(string)":"298daf5b","getAllUsers()":"e2842d79","getMessages()":"5ff6cbf3","sendMessage(string)":"469c8110","test()":"f8a8fd6d"}}}}}