{
  "_format": "hh-sol-artifact-1",
  "contractName": "MsgDapp",
  "sourceName": "contracts/MsgDapp.sol",
  "abi": [
    {
      "inputs": [
        {
          "internalType": "address",
          "name": "pubkey",
          "type": "address"
        }
      ],
      "name": "checkUserExists",
      "outputs": [
        {
          "internalType": "bool",
          "name": "",
          "type": "bool"
        }
      ],
      "stateMutability": "view",
      "type": "function"
    },
    {
      "inputs": [
        {
          "internalType": "string",
          "name": "name",
          "type": "string"
        }
      ],
      "name": "createAccount",
      "outputs": [],
      "stateMutability": "nonpayable",
      "type": "function"
    },
    {
      "inputs": [],
      "name": "getAllUsers",
      "outputs": [
        {
          "components": [
            {
              "internalType": "string",
              "name": "name",
              "type": "string"
            },
            {
              "internalType": "address",
              "name": "pubkey",
              "type": "address"
            }
          ],
          "internalType": "struct MsgDapp.user[]",
          "name": "",
          "type": "tuple[]"
        }
      ],
      "stateMutability": "view",
      "type": "function"
    },
    {
      "inputs": [],
      "name": "getMessages",
      "outputs": [
        {
          "components": [
            {
              "internalType": "address",
              "name": "sender",
              "type": "address"
            },
            {
              "internalType": "uint256",
              "name": "timestamp",
              "type": "uint256"
            },
            {
              "internalType": "string",
              "name": "msg",
              "type": "string"
            }
          ],
          "internalType": "struct MsgDapp.message[]",
          "name": "",
          "type": "tuple[]"
        }
      ],
      "stateMutability": "view",
      "type": "function"
    },
    {
      "inputs": [
        {
          "internalType": "string",
          "name": "_msg",
          "type": "string"
        }
      ],
      "name": "sendMessage",
      "outputs": [],
      "stateMutability": "nonpayable",
      "type": "function"
    },
    {
      "inputs": [],
      "name": "test",
      "outputs": [
        {
          "internalType": "string",
          "name": "",
          "type": "string"
        }
      ],
      "stateMutability": "pure",
      "type": "function"
    }
  ],
  "bytecode": "0x608060405234801561001057600080fd5b506111ef806100206000396000f3fe608060405234801561001057600080fd5b50600436106100625760003560e01c8063133f50f514610067578063298daf5b14610097578063469c8110146100b35780635ff6cbf3146100cf578063e2842d79146100ed578063f8a8fd6d1461010b575b600080fd5b610081600480360381019061007c91906107ff565b610129565b60405161008e9190610847565b60405180910390f35b6100b160048036038101906100ac91906108c7565b610183565b005b6100cd60048036038101906100c891906108c7565b610367565b005b6100d76104c2565b6040516100e49190610ade565b60405180910390f35b6100f5610613565b6040516101029190610bff565b60405180910390f35b61011361075a565b6040516101209190610c6b565b60405180910390f35b600080600260008473ffffffffffffffffffffffffffffffffffffffff1673ffffffffffffffffffffffffffffffffffffffff168152602001908152602001600020600001805461017990610cbc565b9050119050919050565b6000151561019033610129565b1515146101d2576040517f08c379a00000000000000000000000000000000000000000000000000000000081526004016101c990610d39565b60405180910390fd5b60008282905011610218576040517f08c379a000000000000000000000000000000000000000000000000000000000815260040161020f90610da5565b60405180910390fd5b8181600260003373ffffffffffffffffffffffffffffffffffffffff1673ffffffffffffffffffffffffffffffffffffffff1681526020019081526020016000206000019182610269929190610fab565b506000604051806040016040528084848080601f016020809104026020016040519081016040528093929190818152602001838380828437600081840152601f19601f8201169050808301925050505050505081526020013373ffffffffffffffffffffffffffffffffffffffff1681525090806001815401808255809150506001900390600052602060002090600202016000909190919091506000820151816000019081610319919061107b565b5060208201518160010160006101000a81548173ffffffffffffffffffffffffffffffffffffffff021916908373ffffffffffffffffffffffffffffffffffffffff16021790555050505050565b61037033610129565b6103af576040517f08c379a00000000000000000000000000000000000000000000000000000000081526004016103a690611199565b60405180910390fd5b600060405180606001604052803373ffffffffffffffffffffffffffffffffffffffff16815260200142815260200184848080601f016020809104026020016040519081016040528093929190818152602001838380828437600081840152601f19601f820116905080830192505050505050508152509050600181908060018154018082558091505060019003906000526020600020906003020160009091909190915060008201518160000160006101000a81548173ffffffffffffffffffffffffffffffffffffffff021916908373ffffffffffffffffffffffffffffffffffffffff1602179055506020820151816001015560408201518160020190816104ba919061107b565b505050505050565b60606001805480602002602001604051908101604052809291908181526020016000905b8282101561060a57838290600052602060002090600302016040518060600160405290816000820160009054906101000a900473ffffffffffffffffffffffffffffffffffffffff1673ffffffffffffffffffffffffffffffffffffffff1673ffffffffffffffffffffffffffffffffffffffff1681526020016001820154815260200160028201805461057990610cbc565b80601f01602080910402602001604051908101604052809291908181526020018280546105a590610cbc565b80156105f25780601f106105c7576101008083540402835291602001916105f2565b820191906000526020600020905b8154815290600101906020018083116105d557829003601f168201915b505050505081525050815260200190600101906104e6565b50505050905090565b60606000805480602002602001604051908101604052809291908181526020016000905b82821015610751578382906000526020600020906002020160405180604001604052908160008201805461066a90610cbc565b80601f016020809104026020016040519081016040528092919081815260200182805461069690610cbc565b80156106e35780601f106106b8576101008083540402835291602001916106e3565b820191906000526020600020905b8154815290600101906020018083116106c657829003601f168201915b505050505081526020016001820160009054906101000a900473ffffffffffffffffffffffffffffffffffffffff1673ffffffffffffffffffffffffffffffffffffffff1673ffffffffffffffffffffffffffffffffffffffff168152505081526020019060010190610637565b50505050905090565b60606040518060400160405280600b81526020017f68656c6c6f20776f726c64000000000000000000000000000000000000000000815250905090565b600080fd5b600080fd5b600073ffffffffffffffffffffffffffffffffffffffff82169050919050565b60006107cc826107a1565b9050919050565b6107dc816107c1565b81146107e757600080fd5b50565b6000813590506107f9816107d3565b92915050565b60006020828403121561081557610814610797565b5b6000610823848285016107ea565b91505092915050565b60008115159050919050565b6108418161082c565b82525050565b600060208201905061085c6000830184610838565b92915050565b600080fd5b600080fd5b600080fd5b60008083601f84011261088757610886610862565b5b8235905067ffffffffffffffff8111156108a4576108a3610867565b5b6020830191508360018202830111156108c0576108bf61086c565b5b9250929050565b600080602083850312156108de576108dd610797565b5b600083013567ffffffffffffffff8111156108fc576108fb61079c565b5b61090885828601610871565b92509250509250929050565b600081519050919050565b600082825260208201905092915050565b6000819050602082019050919050565b610949816107c1565b82525050565b6000819050919050565b6109628161094f565b82525050565b600081519050919050565b600082825260208201905092915050565b60005b838110156109a2578082015181840152602081019050610987565b60008484015250505050565b6000601f19601f8301169050919050565b60006109ca82610968565b6109d48185610973565b93506109e4818560208601610984565b6109ed816109ae565b840191505092915050565b6000606083016000830151610a106000860182610940565b506020830151610a236020860182610959565b5060408301518482036040860152610a3b82826109bf565b9150508091505092915050565b6000610a5483836109f8565b905092915050565b6000602082019050919050565b6000610a7482610914565b610a7e818561091f565b935083602082028501610a9085610930565b8060005b85811015610acc5784840389528151610aad8582610a48565b9450610ab883610a5c565b925060208a01995050600181019050610a94565b50829750879550505050505092915050565b60006020820190508181036000830152610af88184610a69565b905092915050565b600081519050919050565b600082825260208201905092915050565b6000819050602082019050919050565b60006040830160008301518482036000860152610b4982826109bf565b9150506020830151610b5e6020860182610940565b508091505092915050565b6000610b758383610b2c565b905092915050565b6000602082019050919050565b6000610b9582610b00565b610b9f8185610b0b565b935083602082028501610bb185610b1c565b8060005b85811015610bed5784840389528151610bce8582610b69565b9450610bd983610b7d565b925060208a01995050600181019050610bb5565b50829750879550505050505092915050565b60006020820190508181036000830152610c198184610b8a565b905092915050565b600082825260208201905092915050565b6000610c3d82610968565b610c478185610c21565b9350610c57818560208601610984565b610c60816109ae565b840191505092915050565b60006020820190508181036000830152610c858184610c32565b905092915050565b7f4e487b7100000000000000000000000000000000000000000000000000000000600052602260045260246000fd5b60006002820490506001821680610cd457607f821691505b602082108103610ce757610ce6610c8d565b5b50919050565b7f5573657220616c72656164792065786973747300000000000000000000000000600082015250565b6000610d23601383610c21565b9150610d2e82610ced565b602082019050919050565b60006020820190508181036000830152610d5281610d16565b9050919050565b7f557365726e616d652063616e6e6f7420626520656d7074790000000000000000600082015250565b6000610d8f601883610c21565b9150610d9a82610d59565b602082019050919050565b60006020820190508181036000830152610dbe81610d82565b9050919050565b600082905092915050565b7f4e487b7100000000000000000000000000000000000000000000000000000000600052604160045260246000fd5b60008190508160005260206000209050919050565b60006020601f8301049050919050565b600082821b905092915050565b600060088302610e617fffffffffffffffffffffffffffffffffffffffffffffffffffffffffffffffff82610e24565b610e6b8683610e24565b95508019841693508086168417925050509392505050565b6000819050919050565b6000610ea8610ea3610e9e8461094f565b610e83565b61094f565b9050919050565b6000819050919050565b610ec283610e8d565b610ed6610ece82610eaf565b848454610e31565b825550505050565b600090565b610eeb610ede565b610ef6818484610eb9565b505050565b5b81811015610f1a57610f0f600082610ee3565b600181019050610efc565b5050565b601f821115610f5f57610f3081610dff565b610f3984610e14565b81016020851015610f48578190505b610f5c610f5485610e14565b830182610efb565b50505b505050565b600082821c905092915050565b6000610f8260001984600802610f64565b1980831691505092915050565b6000610f9b8383610f71565b9150826002028217905092915050565b610fb58383610dc5565b67ffffffffffffffff811115610fce57610fcd610dd0565b5b610fd88254610cbc565b610fe3828285610f1e565b6000601f8311600181146110125760008415611000578287013590505b61100a8582610f8f565b865550611072565b601f19841661102086610dff565b60005b8281101561104857848901358255600182019150602085019450602081019050611023565b868310156110655784890135611061601f891682610f71565b8355505b6001600288020188555050505b50505050505050565b61108482610968565b67ffffffffffffffff81111561109d5761109c610dd0565b5b6110a78254610cbc565b6110b2828285610f1e565b600060209050601f8311600181146110e557600084156110d3578287015190505b6110dd8582610f8f565b865550611145565b601f1984166110f386610dff565b60005b8281101561111b578489015182556001820191506020850194506020810190506110f6565b868310156111385784890151611134601f891682610f71565b8355505b6001600288020188555050505b505050505050565b7f43726561746520616e206163636f756e74206669727374000000000000000000600082015250565b6000611183601783610c21565b915061118e8261114d565b602082019050919050565b600060208201905081810360008301526111b281611176565b905091905056fea2646970667358221220a35efaf52f002dc7cd5c44143226a477e9deb97756dc7e5e320390b5935ec68564736f6c63430008120033",
  "linkReferences": {},
  "deployedLinkReferences": {}
}