{
  "_format": "hh-sol-artifact-1",
  "contractName": "MsgDapp",
  "sourceName": "contracts/MsgDapp.sol",
  "abi": [
    {
      "inputs": [
        {
          "internalType": "address",
          "name": "pubkey",
          "type": "address"
        }
      ],
      "name": "checkUserExists",
      "outputs": [
        {
          "internalType": "bool",
          "name": "",
          "type": "bool"
        }
      ],
      "stateMutability": "view",
      "type": "function"
    },
    {
      "inputs": [
        {
          "internalType": "string",
          "name": "name",
          "type": "string"
        }
      ],
      "name": "createAccount",
      "outputs": [],
      "stateMutability": "nonpayable",
      "type": "function"
    },
    {
      "inputs": [],
      "name": "getAllUsers",
      "outputs": [
        {
          "components": [
            {
              "internalType": "string",
              "name": "name",
              "type": "string"
            },
            {
              "internalType": "address",
              "name": "pubkey",
              "type": "address"
            }
          ],
          "internalType": "struct MsgDapp.user[]",
          "name": "",
          "type": "tuple[]"
        }
      ],
      "stateMutability": "view",
      "type": "function"
    },
    {
      "inputs": [],
      "name": "getMessages",
      "outputs": [
        {
          "components": [
            {
              "internalType": "address",
              "name": "sender",
              "type": "address"
            },
            {
              "internalType": "uint256",
              "name": "timestamp",
              "type": "uint256"
            },
            {
              "internalType": "string",
              "name": "msg",
              "type": "string"
            }
          ],
          "internalType": "struct MsgDapp.message[]",
          "name": "",
          "type": "tuple[]"
        }
      ],
      "stateMutability": "view",
      "type": "function"
    },
    {
      "inputs": [
        {
          "internalType": "string",
          "name": "_msg",
          "type": "string"
        }
      ],
      "name": "sendMessage",
      "outputs": [],
      "stateMutability": "nonpayable",
      "type": "function"
    }
  ],
  "bytecode": "0x608060405234801561001057600080fd5b5061112e806100206000396000f3fe608060405234801561001057600080fd5b50600436106100575760003560e01c8063133f50f51461005c578063298daf5b1461008c578063469c8110146100a85780635ff6cbf3146100c4578063e2842d79146100e2575b600080fd5b61007660048036038101906100719190610799565b610100565b60405161008391906107e1565b60405180910390f35b6100a660048036038101906100a19190610861565b61015a565b005b6100c260048036038101906100bd9190610861565b61033e565b005b6100cc610499565b6040516100d99190610a78565b60405180910390f35b6100ea6105ea565b6040516100f79190610b99565b60405180910390f35b600080600260008473ffffffffffffffffffffffffffffffffffffffff1673ffffffffffffffffffffffffffffffffffffffff168152602001908152602001600020600001805461015090610bea565b9050119050919050565b6000151561016733610100565b1515146101a9576040517f08c379a00000000000000000000000000000000000000000000000000000000081526004016101a090610c78565b60405180910390fd5b600082829050116101ef576040517f08c379a00000000000000000000000000000000000000000000000000000000081526004016101e690610ce4565b60405180910390fd5b8181600260003373ffffffffffffffffffffffffffffffffffffffff1673ffffffffffffffffffffffffffffffffffffffff1681526020019081526020016000206000019182610240929190610eea565b506000604051806040016040528084848080601f016020809104026020016040519081016040528093929190818152602001838380828437600081840152601f19601f8201169050808301925050505050505081526020013373ffffffffffffffffffffffffffffffffffffffff16815250908060018154018082558091505060019003906000526020600020906002020160009091909190915060008201518160000190816102f09190610fba565b5060208201518160010160006101000a81548173ffffffffffffffffffffffffffffffffffffffff021916908373ffffffffffffffffffffffffffffffffffffffff16021790555050505050565b61034733610100565b610386576040517f08c379a000000000000000000000000000000000000000000000000000000000815260040161037d906110d8565b60405180910390fd5b600060405180606001604052803373ffffffffffffffffffffffffffffffffffffffff16815260200142815260200184848080601f016020809104026020016040519081016040528093929190818152602001838380828437600081840152601f19601f820116905080830192505050505050508152509050600181908060018154018082558091505060019003906000526020600020906003020160009091909190915060008201518160000160006101000a81548173ffffffffffffffffffffffffffffffffffffffff021916908373ffffffffffffffffffffffffffffffffffffffff1602179055506020820151816001015560408201518160020190816104919190610fba565b505050505050565b60606001805480602002602001604051908101604052809291908181526020016000905b828210156105e157838290600052602060002090600302016040518060600160405290816000820160009054906101000a900473ffffffffffffffffffffffffffffffffffffffff1673ffffffffffffffffffffffffffffffffffffffff1673ffffffffffffffffffffffffffffffffffffffff1681526020016001820154815260200160028201805461055090610bea565b80601f016020809104026020016040519081016040528092919081815260200182805461057c90610bea565b80156105c95780601f1061059e576101008083540402835291602001916105c9565b820191906000526020600020905b8154815290600101906020018083116105ac57829003601f168201915b505050505081525050815260200190600101906104bd565b50505050905090565b60606000805480602002602001604051908101604052809291908181526020016000905b82821015610728578382906000526020600020906002020160405180604001604052908160008201805461064190610bea565b80601f016020809104026020016040519081016040528092919081815260200182805461066d90610bea565b80156106ba5780601f1061068f576101008083540402835291602001916106ba565b820191906000526020600020905b81548152906001019060200180831161069d57829003601f168201915b505050505081526020016001820160009054906101000a900473ffffffffffffffffffffffffffffffffffffffff1673ffffffffffffffffffffffffffffffffffffffff1673ffffffffffffffffffffffffffffffffffffffff16815250508152602001906001019061060e565b50505050905090565b600080fd5b600080fd5b600073ffffffffffffffffffffffffffffffffffffffff82169050919050565b60006107668261073b565b9050919050565b6107768161075b565b811461078157600080fd5b50565b6000813590506107938161076d565b92915050565b6000602082840312156107af576107ae610731565b5b60006107bd84828501610784565b91505092915050565b60008115159050919050565b6107db816107c6565b82525050565b60006020820190506107f660008301846107d2565b92915050565b600080fd5b600080fd5b600080fd5b60008083601f840112610821576108206107fc565b5b8235905067ffffffffffffffff81111561083e5761083d610801565b5b60208301915083600182028301111561085a57610859610806565b5b9250929050565b6000806020838503121561087857610877610731565b5b600083013567ffffffffffffffff81111561089657610895610736565b5b6108a28582860161080b565b92509250509250929050565b600081519050919050565b600082825260208201905092915050565b6000819050602082019050919050565b6108e38161075b565b82525050565b6000819050919050565b6108fc816108e9565b82525050565b600081519050919050565b600082825260208201905092915050565b60005b8381101561093c578082015181840152602081019050610921565b60008484015250505050565b6000601f19601f8301169050919050565b600061096482610902565b61096e818561090d565b935061097e81856020860161091e565b61098781610948565b840191505092915050565b60006060830160008301516109aa60008601826108da565b5060208301516109bd60208601826108f3565b50604083015184820360408601526109d58282610959565b9150508091505092915050565b60006109ee8383610992565b905092915050565b6000602082019050919050565b6000610a0e826108ae565b610a1881856108b9565b935083602082028501610a2a856108ca565b8060005b85811015610a665784840389528151610a4785826109e2565b9450610a52836109f6565b925060208a01995050600181019050610a2e565b50829750879550505050505092915050565b60006020820190508181036000830152610a928184610a03565b905092915050565b600081519050919050565b600082825260208201905092915050565b6000819050602082019050919050565b60006040830160008301518482036000860152610ae38282610959565b9150506020830151610af860208601826108da565b508091505092915050565b6000610b0f8383610ac6565b905092915050565b6000602082019050919050565b6000610b2f82610a9a565b610b398185610aa5565b935083602082028501610b4b85610ab6565b8060005b85811015610b875784840389528151610b688582610b03565b9450610b7383610b17565b925060208a01995050600181019050610b4f565b50829750879550505050505092915050565b60006020820190508181036000830152610bb38184610b24565b905092915050565b7f4e487b7100000000000000000000000000000000000000000000000000000000600052602260045260246000fd5b60006002820490506001821680610c0257607f821691505b602082108103610c1557610c14610bbb565b5b50919050565b600082825260208201905092915050565b7f5573657220616c72656164792065786973747300000000000000000000000000600082015250565b6000610c62601383610c1b565b9150610c6d82610c2c565b602082019050919050565b60006020820190508181036000830152610c9181610c55565b9050919050565b7f557365726e616d652063616e6e6f7420626520656d7074790000000000000000600082015250565b6000610cce601883610c1b565b9150610cd982610c98565b602082019050919050565b60006020820190508181036000830152610cfd81610cc1565b9050919050565b600082905092915050565b7f4e487b7100000000000000000000000000000000000000000000000000000000600052604160045260246000fd5b60008190508160005260206000209050919050565b60006020601f8301049050919050565b600082821b905092915050565b600060088302610da07fffffffffffffffffffffffffffffffffffffffffffffffffffffffffffffffff82610d63565b610daa8683610d63565b95508019841693508086168417925050509392505050565b6000819050919050565b6000610de7610de2610ddd846108e9565b610dc2565b6108e9565b9050919050565b6000819050919050565b610e0183610dcc565b610e15610e0d82610dee565b848454610d70565b825550505050565b600090565b610e2a610e1d565b610e35818484610df8565b505050565b5b81811015610e5957610e4e600082610e22565b600181019050610e3b565b5050565b601f821115610e9e57610e6f81610d3e565b610e7884610d53565b81016020851015610e87578190505b610e9b610e9385610d53565b830182610e3a565b50505b505050565b600082821c905092915050565b6000610ec160001984600802610ea3565b1980831691505092915050565b6000610eda8383610eb0565b9150826002028217905092915050565b610ef48383610d04565b67ffffffffffffffff811115610f0d57610f0c610d0f565b5b610f178254610bea565b610f22828285610e5d565b6000601f831160018114610f515760008415610f3f578287013590505b610f498582610ece565b865550610fb1565b601f198416610f5f86610d3e565b60005b82811015610f8757848901358255600182019150602085019450602081019050610f62565b86831015610fa45784890135610fa0601f891682610eb0565b8355505b6001600288020188555050505b50505050505050565b610fc382610902565b67ffffffffffffffff811115610fdc57610fdb610d0f565b5b610fe68254610bea565b610ff1828285610e5d565b600060209050601f8311600181146110245760008415611012578287015190505b61101c8582610ece565b865550611084565b601f19841661103286610d3e565b60005b8281101561105a57848901518255600182019150602085019450602081019050611035565b868310156110775784890151611073601f891682610eb0565b8355505b6001600288020188555050505b505050505050565b7f43726561746520616e206163636f756e74206669727374000000000000000000600082015250565b60006110c2601783610c1b565b91506110cd8261108c565b602082019050919050565b600060208201905081810360008301526110f1816110b5565b905091905056fea2646970667358221220464a846e12f409fb5a134997153cc684a572cfc568a4dfe7ca07910ac6e7a0d964736f6c63430008120033",
  "linkReferences": {},
  "deployedLinkReferences": {}
}